{
    "_format": "hh-sol-artifact-1",
    "contractName": "WavePortal",
    "sourceName": "contracts/WavePortal.sol",
    "abi": [
        {
            "inputs": [],
            "stateMutability": "payable",
            "type": "constructor"
        },
        {
            "anonymous": false,
            "inputs": [
                {
                    "indexed": true,
                    "internalType": "address",
                    "name": "from",
                    "type": "address"
                },
                {
                    "indexed": false,
                    "internalType": "uint256",
                    "name": "timestamp",
                    "type": "uint256"
                },
                {
                    "indexed": false,
                    "internalType": "string",
                    "name": "message",
                    "type": "string"
                }
            ],
            "name": "NewWave",
            "type": "event"
        },
        {
            "inputs": [],
            "name": "getAllWaves",
            "outputs": [
                {
                    "components": [
                        {
                            "internalType": "address",
                            "name": "waver",
                            "type": "address"
                        },
                        {
                            "internalType": "string",
                            "name": "message",
                            "type": "string"
                        },
                        {
                            "internalType": "uint256",
                            "name": "timestamp",
                            "type": "uint256"
                        }
                    ],
                    "internalType": "struct WavePortal.Wave[]",
                    "name": "",
                    "type": "tuple[]"
                }
            ],
            "stateMutability": "view",
            "type": "function"
        },
        {
            "inputs": [],
            "name": "getTotalWaves",
            "outputs": [
                {
                    "internalType": "uint256",
                    "name": "",
                    "type": "uint256"
                }
            ],
            "stateMutability": "view",
            "type": "function"
        },
        {
            "inputs": [
                {
                    "internalType": "address",
                    "name": "",
                    "type": "address"
                }
            ],
            "name": "lastWavesAt",
            "outputs": [
                {
                    "internalType": "uint256",
                    "name": "timestamp",
                    "type": "uint256"
                },
                {
                    "internalType": "uint256",
                    "name": "clear_timestamp",
                    "type": "uint256"
                },
                {
                    "internalType": "uint256",
                    "name": "count",
                    "type": "uint256"
                }
            ],
            "stateMutability": "view",
            "type": "function"
        },
        {
            "inputs": [
                {
                    "internalType": "string",
                    "name": "_message",
                    "type": "string"
                }
            ],
            "name": "wave",
            "outputs": [],
            "stateMutability": "nonpayable",
            "type": "function"
        }
    ],
    "bytecode": "0x60806040526200004f6040518060400160405280601981526020017f57652068617665206265656e20636f6e737472756374656421000000000000008152506200007760201b620008611760201c565b606444426200005f91906200017c565b6200006b9190620001e6565b600181905550620002dc565b62000117816040516024016200008e9190620002b8565b6040516020818303038152906040527f41304fac000000000000000000000000000000000000000000000000000000007bffffffffffffffffffffffffffffffffffffffffffffffffffffffff19166020820180517bffffffffffffffffffffffffffffffffffffffffffffffffffffffff83818316178352505050506200011a60201b60201c565b50565b60008151905060006a636f6e736f6c652e6c6f679050602083016000808483855afa5050505050565b6000819050919050565b7f4e487b7100000000000000000000000000000000000000000000000000000000600052601160045260246000fd5b6000620001898262000143565b9150620001968362000143565b9250828201905080821115620001b157620001b06200014d565b5b92915050565b7f4e487b7100000000000000000000000000000000000000000000000000000000600052601260045260246000fd5b6000620001f38262000143565b9150620002008362000143565b925082620002135762000212620001b7565b5b828206905092915050565b600081519050919050565b600082825260208201905092915050565b60005b838110156200025a5780820151818401526020810190506200023d565b60008484015250505050565b6000601f19601f8301169050919050565b600062000284826200021e565b62000290818562000229565b9350620002a28185602086016200023a565b620002ad8162000266565b840191505092915050565b60006020820190508181036000830152620002d4818462000277565b905092915050565b61166180620002ec6000396000f3fe608060405234801561001057600080fd5b506004361061004c5760003560e01c8063449d46c0146100515780639a2cdc081461006d578063bd43a9081461008b578063c47742b9146100a9575b600080fd5b61006b60048036038101906100669190610c54565b6100db565b005b6100756106dd565b6040516100829190610cb6565b60405180910390f35b6100936106e6565b6040516100a09190610eb2565b60405180910390f35b6100c360048036038101906100be9190610f00565b610837565b6040516100d293929190610f2d565b60405180910390f35b6000600360003373ffffffffffffffffffffffffffffffffffffffff1673ffffffffffffffffffffffffffffffffffffffff16815260200190815260200160002060020154148061016d575042600360003373ffffffffffffffffffffffffffffffffffffffff1673ffffffffffffffffffffffffffffffffffffffff16815260200190815260200160002060010154105b1561025b5742600360003373ffffffffffffffffffffffffffffffffffffffff1673ffffffffffffffffffffffffffffffffffffffff1681526020019081526020016000206000018190555062015180426101c89190610f93565b600360003373ffffffffffffffffffffffffffffffffffffffff1673ffffffffffffffffffffffffffffffffffffffff168152602001908152602001600020600101819055506001600360003373ffffffffffffffffffffffffffffffffffffffff1673ffffffffffffffffffffffffffffffffffffffff16815260200190815260200160002060020181905550610376565b6001600360003373ffffffffffffffffffffffffffffffffffffffff1673ffffffffffffffffffffffffffffffffffffffff168152602001908152602001600020600201546102aa9190610f93565b600360003373ffffffffffffffffffffffffffffffffffffffff1673ffffffffffffffffffffffffffffffffffffffff168152602001908152602001600020600201819055506004600360003373ffffffffffffffffffffffffffffffffffffffff1673ffffffffffffffffffffffffffffffffffffffff1681526020019081526020016000206002015410610375576040517f08c379a000000000000000000000000000000000000000000000000000000000815260040161036c90611024565b60405180910390fd5b5b60016000808282546103889190610f93565b925050819055506103cf6040518060400160405280601681526020017f257320776176656420772f206d6573736167652025730000000000000000000081525033836108fa565b600260405180606001604052803373ffffffffffffffffffffffffffffffffffffffff16815260200183815260200142815250908060018154018082558091505060019003906000526020600020906003020160009091909190915060008201518160000160006101000a81548173ffffffffffffffffffffffffffffffffffffffff021916908373ffffffffffffffffffffffffffffffffffffffff16021790555060208201518160010190816104879190611250565b50604082015181600201555050606460015444426104a59190610f93565b6104af9190610f93565b6104b99190611351565b6001819055506105006040518060400160405280601681526020017f52616e646f6d20232067656e6572617465643a20256400000000000000000000815250600154610999565b60326001541161064a576105496040518060400160405280600781526020017f257320776f6e210000000000000000000000000000000000000000000000000081525033610a35565b600065b5e620f48000905047811115610597576040517f08c379a000000000000000000000000000000000000000000000000000000000815260040161058e906113f4565b60405180910390fd5b60003373ffffffffffffffffffffffffffffffffffffffff16826040516105bd90611445565b60006040518083038185875af1925050503d80600081146105fa576040519150601f19603f3d011682016040523d82523d6000602084013e6105ff565b606091505b5050905080610643576040517f08c379a000000000000000000000000000000000000000000000000000000000815260040161063a906114cc565b60405180910390fd5b505061068a565b6106896040518060400160405280600f81526020017f257320646964206e6f742077696e2e000000000000000000000000000000000081525033610a35565b5b3373ffffffffffffffffffffffffffffffffffffffff167f5f7e16dc676677766a70e9c5628aa6c54ddb8b6e5188e2ae1e1f17f1ffbea71642836040516106d2929190611525565b60405180910390a250565b60008054905090565b60606002805480602002602001604051908101604052809291908181526020016000905b8282101561082e57838290600052602060002090600302016040518060600160405290816000820160009054906101000a900473ffffffffffffffffffffffffffffffffffffffff1673ffffffffffffffffffffffffffffffffffffffff1673ffffffffffffffffffffffffffffffffffffffff16815260200160018201805461079390611073565b80601f01602080910402602001604051908101604052809291908181526020018280546107bf90611073565b801561080c5780601f106107e15761010080835404028352916020019161080c565b820191906000526020600020905b8154815290600101906020018083116107ef57829003601f168201915b505050505081526020016002820154815250508152602001906001019061070a565b50505050905090565b60036020528060005260406000206000915090508060000154908060010154908060020154905083565b6108f7816040516024016108759190611555565b6040516020818303038152906040527f41304fac000000000000000000000000000000000000000000000000000000007bffffffffffffffffffffffffffffffffffffffffffffffffffffffff19166020820180517bffffffffffffffffffffffffffffffffffffffffffffffffffffffff8381831617835250505050610ad1565b50565b61099483838360405160240161091293929190611586565b6040516020818303038152906040527fe0e9ad4f000000000000000000000000000000000000000000000000000000007bffffffffffffffffffffffffffffffffffffffffffffffffffffffff19166020820180517bffffffffffffffffffffffffffffffffffffffffffffffffffffffff8381831617835250505050610ad1565b505050565b610a3182826040516024016109af9291906115cb565b6040516020818303038152906040527fb60e72cc000000000000000000000000000000000000000000000000000000007bffffffffffffffffffffffffffffffffffffffffffffffffffffffff19166020820180517bffffffffffffffffffffffffffffffffffffffffffffffffffffffff8381831617835250505050610ad1565b5050565b610acd8282604051602401610a4b9291906115fb565b6040516020818303038152906040527f319af333000000000000000000000000000000000000000000000000000000007bffffffffffffffffffffffffffffffffffffffffffffffffffffffff19166020820180517bffffffffffffffffffffffffffffffffffffffffffffffffffffffff8381831617835250505050610ad1565b5050565b60008151905060006a636f6e736f6c652e6c6f679050602083016000808483855afa5050505050565b6000604051905090565b600080fd5b600080fd5b600080fd5b600080fd5b6000601f19601f8301169050919050565b7f4e487b7100000000000000000000000000000000000000000000000000000000600052604160045260246000fd5b610b6182610b18565b810181811067ffffffffffffffff82111715610b8057610b7f610b29565b5b80604052505050565b6000610b93610afa565b9050610b9f8282610b58565b919050565b600067ffffffffffffffff821115610bbf57610bbe610b29565b5b610bc882610b18565b9050602081019050919050565b82818337600083830152505050565b6000610bf7610bf284610ba4565b610b89565b905082815260208101848484011115610c1357610c12610b13565b5b610c1e848285610bd5565b509392505050565b600082601f830112610c3b57610c3a610b0e565b5b8135610c4b848260208601610be4565b91505092915050565b600060208284031215610c6a57610c69610b04565b5b600082013567ffffffffffffffff811115610c8857610c87610b09565b5b610c9484828501610c26565b91505092915050565b6000819050919050565b610cb081610c9d565b82525050565b6000602082019050610ccb6000830184610ca7565b92915050565b600081519050919050565b600082825260208201905092915050565b6000819050602082019050919050565b600073ffffffffffffffffffffffffffffffffffffffff82169050919050565b6000610d2882610cfd565b9050919050565b610d3881610d1d565b82525050565b600081519050919050565b600082825260208201905092915050565b60005b83811015610d78578082015181840152602081019050610d5d565b60008484015250505050565b6000610d8f82610d3e565b610d998185610d49565b9350610da9818560208601610d5a565b610db281610b18565b840191505092915050565b610dc681610c9d565b82525050565b6000606083016000830151610de46000860182610d2f565b5060208301518482036020860152610dfc8282610d84565b9150506040830151610e116040860182610dbd565b508091505092915050565b6000610e288383610dcc565b905092915050565b6000602082019050919050565b6000610e4882610cd1565b610e528185610cdc565b935083602082028501610e6485610ced565b8060005b85811015610ea05784840389528151610e818582610e1c565b9450610e8c83610e30565b925060208a01995050600181019050610e68565b50829750879550505050505092915050565b60006020820190508181036000830152610ecc8184610e3d565b905092915050565b610edd81610d1d565b8114610ee857600080fd5b50565b600081359050610efa81610ed4565b92915050565b600060208284031215610f1657610f15610b04565b5b6000610f2484828501610eeb565b91505092915050565b6000606082019050610f426000830186610ca7565b610f4f6020830185610ca7565b610f5c6040830184610ca7565b949350505050565b7f4e487b7100000000000000000000000000000000000000000000000000000000600052601160045260246000fd5b6000610f9e82610c9d565b9150610fa983610c9d565b9250828201905080821115610fc157610fc0610f64565b5b92915050565b600082825260208201905092915050565b7f7265616368656420746865207570706572206c696d69742e2000000000000000600082015250565b600061100e601983610fc7565b915061101982610fd8565b602082019050919050565b6000602082019050818103600083015261103d81611001565b9050919050565b7f4e487b7100000000000000000000000000000000000000000000000000000000600052602260045260246000fd5b6000600282049050600182168061108b57607f821691505b60208210810361109e5761109d611044565b5b50919050565b60008190508160005260206000209050919050565b60006020601f8301049050919050565b600082821b905092915050565b6000600883026111067fffffffffffffffffffffffffffffffffffffffffffffffffffffffffffffffff826110c9565b61111086836110c9565b95508019841693508086168417925050509392505050565b6000819050919050565b600061114d61114861114384610c9d565b611128565b610c9d565b9050919050565b6000819050919050565b61116783611132565b61117b61117382611154565b8484546110d6565b825550505050565b600090565b611190611183565b61119b81848461115e565b505050565b5b818110156111bf576111b4600082611188565b6001810190506111a1565b5050565b601f821115611204576111d5816110a4565b6111de846110b9565b810160208510156111ed578190505b6112016111f9856110b9565b8301826111a0565b50505b505050565b600082821c905092915050565b600061122760001984600802611209565b1980831691505092915050565b60006112408383611216565b9150826002028217905092915050565b61125982610d3e565b67ffffffffffffffff81111561127257611271610b29565b5b61127c8254611073565b6112878282856111c3565b600060209050601f8311600181146112ba57600084156112a8578287015190505b6112b28582611234565b86555061131a565b601f1984166112c8866110a4565b60005b828110156112f0578489015182556001820191506020850194506020810190506112cb565b8683101561130d5784890151611309601f891682611216565b8355505b6001600288020188555050505b505050505050565b7f4e487b7100000000000000000000000000000000000000000000000000000000600052601260045260246000fd5b600061135c82610c9d565b915061136783610c9d565b92508261137757611376611322565b5b828206905092915050565b7f547279696e6720746f207769746864726177206d6f7265206d6f6e657920746860008201527f616e2074686520636f6e74726163742e00000000000000000000000000000000602082015250565b60006113de603083610fc7565b91506113e982611382565b604082019050919050565b6000602082019050818103600083015261140d816113d1565b9050919050565b600081905092915050565b50565b600061142f600083611414565b915061143a8261141f565b600082019050919050565b600061145082611422565b9150819050919050565b7f4661696c656420746f207769746864726177206d6f6e65792066726f6d20636f60008201527f6e74726163742e00000000000000000000000000000000000000000000000000602082015250565b60006114b6602783610fc7565b91506114c18261145a565b604082019050919050565b600060208201905081810360008301526114e5816114a9565b9050919050565b60006114f782610d3e565b6115018185610fc7565b9350611511818560208601610d5a565b61151a81610b18565b840191505092915050565b600060408201905061153a6000830185610ca7565b818103602083015261154c81846114ec565b90509392505050565b6000602082019050818103600083015261156f81846114ec565b905092915050565b61158081610d1d565b82525050565b600060608201905081810360008301526115a081866114ec565b90506115af6020830185611577565b81810360408301526115c181846114ec565b9050949350505050565b600060408201905081810360008301526115e581856114ec565b90506115f46020830184610ca7565b9392505050565b6000604082019050818103600083015261161581856114ec565b90506116246020830184611577565b939250505056fea2646970667358221220f7f176da9f31d14fad8f6422982efed0bc9435c0df2fa9164f75ff3b4785499264736f6c63430008110033",
    "linkReferences": {},
    "deployedLinkReferences": {}
}