{
    "_format": "hh-sol-artifact-1",
    "contractName": "WavePortal",
    "sourceName": "contracts/WavePortal.sol",
    "abi": [
        {
            "inputs": [],
            "stateMutability": "payable",
            "type": "constructor"
        },
        {
            "anonymous": false,
            "inputs": [
                {
                    "indexed": true,
                    "internalType": "address",
                    "name": "from",
                    "type": "address"
                },
                {
                    "indexed": false,
                    "internalType": "uint256",
                    "name": "timestamp",
                    "type": "uint256"
                },
                {
                    "indexed": false,
                    "internalType": "string",
                    "name": "message",
                    "type": "string"
                }
            ],
            "name": "NewWave",
            "type": "event"
        },
        {
            "inputs": [],
            "name": "getAllWaves",
            "outputs": [
                {
                    "components": [
                        {
                            "internalType": "address",
                            "name": "waver",
                            "type": "address"
                        },
                        {
                            "internalType": "string",
                            "name": "message",
                            "type": "string"
                        },
                        {
                            "internalType": "uint256",
                            "name": "timestamp",
                            "type": "uint256"
                        }
                    ],
                    "internalType": "struct WavePortal.Wave[]",
                    "name": "",
                    "type": "tuple[]"
                }
            ],
            "stateMutability": "view",
            "type": "function"
        },
        {
            "inputs": [],
            "name": "getTotalWaves",
            "outputs": [
                {
                    "internalType": "uint256",
                    "name": "",
                    "type": "uint256"
                }
            ],
            "stateMutability": "view",
            "type": "function"
        },
        {
            "inputs": [
                {
                    "internalType": "address",
                    "name": "",
                    "type": "address"
                }
            ],
            "name": "lastWavesAt",
            "outputs": [
                {
                    "internalType": "uint256",
                    "name": "",
                    "type": "uint256"
                }
            ],
            "stateMutability": "view",
            "type": "function"
        },
        {
            "inputs": [
                {
                    "internalType": "string",
                    "name": "_message",
                    "type": "string"
                }
            ],
            "name": "wave",
            "outputs": [],
            "stateMutability": "nonpayable",
            "type": "function"
        }
    ],
    "bytecode": "0x60806040526200004f6040518060400160405280601981526020017f57652068617665206265656e20636f6e737472756374656421000000000000008152506200007760201b620006831760201c565b606444426200005f91906200017c565b6200006b9190620001e6565b600181905550620002dc565b62000117816040516024016200008e9190620002b8565b6040516020818303038152906040527f41304fac000000000000000000000000000000000000000000000000000000007bffffffffffffffffffffffffffffffffffffffffffffffffffffffff19166020820180517bffffffffffffffffffffffffffffffffffffffffffffffffffffffff83818316178352505050506200011a60201b60201c565b50565b60008151905060006a636f6e736f6c652e6c6f679050602083016000808483855afa5050505050565b6000819050919050565b7f4e487b7100000000000000000000000000000000000000000000000000000000600052601160045260246000fd5b6000620001898262000143565b9150620001968362000143565b9250828201905080821115620001b157620001b06200014d565b5b92915050565b7f4e487b7100000000000000000000000000000000000000000000000000000000600052601260045260246000fd5b6000620001f38262000143565b9150620002008362000143565b925082620002135762000212620001b7565b5b828206905092915050565b600081519050919050565b600082825260208201905092915050565b60005b838110156200025a5780820151818401526020810190506200023d565b60008484015250505050565b6000601f19601f8301169050919050565b600062000284826200021e565b62000290818562000229565b9350620002a28185602086016200023a565b620002ad8162000266565b840191505092915050565b60006020820190508181036000830152620002d4818462000277565b905092915050565b61144c80620002ec6000396000f3fe608060405234801561001057600080fd5b506004361061004c5760003560e01c8063449d46c0146100515780639a2cdc081461006d578063bd43a9081461008b578063c47742b9146100a9575b600080fd5b61006b60048036038101906100669190610a76565b6100d9565b005b610075610511565b6040516100829190610ad8565b60405180910390f35b61009361051a565b6040516100a09190610cd4565b60405180910390f35b6100c360048036038101906100be9190610d22565b61066b565b6040516100d09190610ad8565b60405180910390f35b426000600360003373ffffffffffffffffffffffffffffffffffffffff1673ffffffffffffffffffffffffffffffffffffffff168152602001908152602001600020546101269190610d7e565b10610166576040517f08c379a000000000000000000000000000000000000000000000000000000000815260040161015d90610e0f565b60405180910390fd5b42600360003373ffffffffffffffffffffffffffffffffffffffff1673ffffffffffffffffffffffffffffffffffffffff1681526020019081526020016000208190555060016000808282546101bc9190610d7e565b925050819055506102036040518060400160405280601681526020017f257320776176656420772f206d65737361676520257300000000000000000000815250338361071c565b600260405180606001604052803373ffffffffffffffffffffffffffffffffffffffff16815260200183815260200142815250908060018154018082558091505060019003906000526020600020906003020160009091909190915060008201518160000160006101000a81548173ffffffffffffffffffffffffffffffffffffffff021916908373ffffffffffffffffffffffffffffffffffffffff16021790555060208201518160010190816102bb919061103b565b50604082015181600201555050606460015444426102d99190610d7e565b6102e39190610d7e565b6102ed919061113c565b6001819055506103346040518060400160405280601681526020017f52616e646f6d20232067656e6572617465643a202564000000000000000000008152506001546107bb565b60326001541161047e5761037d6040518060400160405280600781526020017f257320776f6e210000000000000000000000000000000000000000000000000081525033610857565b600065b5e620f480009050478111156103cb576040517f08c379a00000000000000000000000000000000000000000000000000000000081526004016103c2906111df565b60405180910390fd5b60003373ffffffffffffffffffffffffffffffffffffffff16826040516103f190611230565b60006040518083038185875af1925050503d806000811461042e576040519150601f19603f3d011682016040523d82523d6000602084013e610433565b606091505b5050905080610477576040517f08c379a000000000000000000000000000000000000000000000000000000000815260040161046e906112b7565b60405180910390fd5b50506104be565b6104bd6040518060400160405280600f81526020017f257320646964206e6f742077696e2e000000000000000000000000000000000081525033610857565b5b3373ffffffffffffffffffffffffffffffffffffffff167f5f7e16dc676677766a70e9c5628aa6c54ddb8b6e5188e2ae1e1f17f1ffbea7164283604051610506929190611310565b60405180910390a250565b60008054905090565b60606002805480602002602001604051908101604052809291908181526020016000905b8282101561066257838290600052602060002090600302016040518060600160405290816000820160009054906101000a900473ffffffffffffffffffffffffffffffffffffffff1673ffffffffffffffffffffffffffffffffffffffff1673ffffffffffffffffffffffffffffffffffffffff1681526020016001820180546105c790610e5e565b80601f01602080910402602001604051908101604052809291908181526020018280546105f390610e5e565b80156106405780601f1061061557610100808354040283529160200191610640565b820191906000526020600020905b81548152906001019060200180831161062357829003601f168201915b505050505081526020016002820154815250508152602001906001019061053e565b50505050905090565b60036020528060005260406000206000915090505481565b610719816040516024016106979190611340565b6040516020818303038152906040527f41304fac000000000000000000000000000000000000000000000000000000007bffffffffffffffffffffffffffffffffffffffffffffffffffffffff19166020820180517bffffffffffffffffffffffffffffffffffffffffffffffffffffffff83818316178352505050506108f3565b50565b6107b683838360405160240161073493929190611371565b6040516020818303038152906040527fe0e9ad4f000000000000000000000000000000000000000000000000000000007bffffffffffffffffffffffffffffffffffffffffffffffffffffffff19166020820180517bffffffffffffffffffffffffffffffffffffffffffffffffffffffff83818316178352505050506108f3565b505050565b61085382826040516024016107d19291906113b6565b6040516020818303038152906040527fb60e72cc000000000000000000000000000000000000000000000000000000007bffffffffffffffffffffffffffffffffffffffffffffffffffffffff19166020820180517bffffffffffffffffffffffffffffffffffffffffffffffffffffffff83818316178352505050506108f3565b5050565b6108ef828260405160240161086d9291906113e6565b6040516020818303038152906040527f319af333000000000000000000000000000000000000000000000000000000007bffffffffffffffffffffffffffffffffffffffffffffffffffffffff19166020820180517bffffffffffffffffffffffffffffffffffffffffffffffffffffffff83818316178352505050506108f3565b5050565b60008151905060006a636f6e736f6c652e6c6f679050602083016000808483855afa5050505050565b6000604051905090565b600080fd5b600080fd5b600080fd5b600080fd5b6000601f19601f8301169050919050565b7f4e487b7100000000000000000000000000000000000000000000000000000000600052604160045260246000fd5b6109838261093a565b810181811067ffffffffffffffff821117156109a2576109a161094b565b5b80604052505050565b60006109b561091c565b90506109c1828261097a565b919050565b600067ffffffffffffffff8211156109e1576109e061094b565b5b6109ea8261093a565b9050602081019050919050565b82818337600083830152505050565b6000610a19610a14846109c6565b6109ab565b905082815260208101848484011115610a3557610a34610935565b5b610a408482856109f7565b509392505050565b600082601f830112610a5d57610a5c610930565b5b8135610a6d848260208601610a06565b91505092915050565b600060208284031215610a8c57610a8b610926565b5b600082013567ffffffffffffffff811115610aaa57610aa961092b565b5b610ab684828501610a48565b91505092915050565b6000819050919050565b610ad281610abf565b82525050565b6000602082019050610aed6000830184610ac9565b92915050565b600081519050919050565b600082825260208201905092915050565b6000819050602082019050919050565b600073ffffffffffffffffffffffffffffffffffffffff82169050919050565b6000610b4a82610b1f565b9050919050565b610b5a81610b3f565b82525050565b600081519050919050565b600082825260208201905092915050565b60005b83811015610b9a578082015181840152602081019050610b7f565b60008484015250505050565b6000610bb182610b60565b610bbb8185610b6b565b9350610bcb818560208601610b7c565b610bd48161093a565b840191505092915050565b610be881610abf565b82525050565b6000606083016000830151610c066000860182610b51565b5060208301518482036020860152610c1e8282610ba6565b9150506040830151610c336040860182610bdf565b508091505092915050565b6000610c4a8383610bee565b905092915050565b6000602082019050919050565b6000610c6a82610af3565b610c748185610afe565b935083602082028501610c8685610b0f565b8060005b85811015610cc25784840389528151610ca38582610c3e565b9450610cae83610c52565b925060208a01995050600181019050610c8a565b50829750879550505050505092915050565b60006020820190508181036000830152610cee8184610c5f565b905092915050565b610cff81610b3f565b8114610d0a57600080fd5b50565b600081359050610d1c81610cf6565b92915050565b600060208284031215610d3857610d37610926565b5b6000610d4684828501610d0d565b91505092915050565b7f4e487b7100000000000000000000000000000000000000000000000000000000600052601160045260246000fd5b6000610d8982610abf565b9150610d9483610abf565b9250828201905080821115610dac57610dab610d4f565b5b92915050565b600082825260208201905092915050565b7f776169742031356d000000000000000000000000000000000000000000000000600082015250565b6000610df9600883610db2565b9150610e0482610dc3565b602082019050919050565b60006020820190508181036000830152610e2881610dec565b9050919050565b7f4e487b7100000000000000000000000000000000000000000000000000000000600052602260045260246000fd5b60006002820490506001821680610e7657607f821691505b602082108103610e8957610e88610e2f565b5b50919050565b60008190508160005260206000209050919050565b60006020601f8301049050919050565b600082821b905092915050565b600060088302610ef17fffffffffffffffffffffffffffffffffffffffffffffffffffffffffffffffff82610eb4565b610efb8683610eb4565b95508019841693508086168417925050509392505050565b6000819050919050565b6000610f38610f33610f2e84610abf565b610f13565b610abf565b9050919050565b6000819050919050565b610f5283610f1d565b610f66610f5e82610f3f565b848454610ec1565b825550505050565b600090565b610f7b610f6e565b610f86818484610f49565b505050565b5b81811015610faa57610f9f600082610f73565b600181019050610f8c565b5050565b601f821115610fef57610fc081610e8f565b610fc984610ea4565b81016020851015610fd8578190505b610fec610fe485610ea4565b830182610f8b565b50505b505050565b600082821c905092915050565b600061101260001984600802610ff4565b1980831691505092915050565b600061102b8383611001565b9150826002028217905092915050565b61104482610b60565b67ffffffffffffffff81111561105d5761105c61094b565b5b6110678254610e5e565b611072828285610fae565b600060209050601f8311600181146110a55760008415611093578287015190505b61109d858261101f565b865550611105565b601f1984166110b386610e8f565b60005b828110156110db578489015182556001820191506020850194506020810190506110b6565b868310156110f857848901516110f4601f891682611001565b8355505b6001600288020188555050505b505050505050565b7f4e487b7100000000000000000000000000000000000000000000000000000000600052601260045260246000fd5b600061114782610abf565b915061115283610abf565b9250826111625761116161110d565b5b828206905092915050565b7f547279696e6720746f207769746864726177206d6f7265206d6f6e657920746860008201527f616e2074686520636f6e74726163742e00000000000000000000000000000000602082015250565b60006111c9603083610db2565b91506111d48261116d565b604082019050919050565b600060208201905081810360008301526111f8816111bc565b9050919050565b600081905092915050565b50565b600061121a6000836111ff565b91506112258261120a565b600082019050919050565b600061123b8261120d565b9150819050919050565b7f4661696c656420746f207769746864726177206d6f6e65792066726f6d20636f60008201527f6e74726163742e00000000000000000000000000000000000000000000000000602082015250565b60006112a1602783610db2565b91506112ac82611245565b604082019050919050565b600060208201905081810360008301526112d081611294565b9050919050565b60006112e282610b60565b6112ec8185610db2565b93506112fc818560208601610b7c565b6113058161093a565b840191505092915050565b60006040820190506113256000830185610ac9565b818103602083015261133781846112d7565b90509392505050565b6000602082019050818103600083015261135a81846112d7565b905092915050565b61136b81610b3f565b82525050565b6000606082019050818103600083015261138b81866112d7565b905061139a6020830185611362565b81810360408301526113ac81846112d7565b9050949350505050565b600060408201905081810360008301526113d081856112d7565b90506113df6020830184610ac9565b9392505050565b6000604082019050818103600083015261140081856112d7565b905061140f6020830184611362565b939250505056fea26469706673582212207e345698a7fb08e007353e7fb7f376f227ba679fb64abec9f2fba5f7e725f40364736f6c63430008110033",
    "linkReferences": {},
    "deployedLinkReferences": {}
}